:020000040000FA
:0600000028EF0DF01200D4
:020006000000F8
:060008000FEF00F01200F2
:02000E001200DE
:060018005CEF00F0120095
:02001E00DACF37
:10002000E4FFE2CFDAFFE9CFE4FFEACFE4FFF6CF67
:10003000E4FFF7CFE4FFF5CFE4FFF3CFE4FFF4CF25
:10004000E4FFFACFE4FF00EE00F00B0EE80403E358
:10005000EECFE4FFFBD700EE0BF0030EE80403E362
:10006000EECFE4FFFBD7E65227EC07F086D88A767E
:10007000E55200EE0DF0030EE80403E3E5CFEDFFDB
:10008000FBD700EE0AF00B0EE80403E3E5CFEDFF2B
:10009000FBD7E5CFFAFFE5CFF4FFE5CFF3FFE5CFE0
:1000A000F5FFE5CFF7FFE5CFF6FFE5CFEAFFE5CFB8
:1000B000E9FFE5CFDAFF1100D8CFE4FFE0CFE4FF9E
:1000C000E46EDACFE4FFE2CFDAFFE652F2A44CD0DE
:1000D000F294F90ED76E350ED66E0001635102E030
:1000E000000163070001665102E00001660700019C
:1000F000695102E0000169070001875102E0000137
:10010000870700018A5102E000018A0700018D5132
:1001100002E000018D0700018451020A15E0030A84
:100120000BE0010A01E018D00001715102E000016A
:1001300071070001842B13D00001795102E0000106
:1001400079070001842B0BD00001815102E00001EE
:1001500081070001846B03D00001846B00D0000193
:10016000605102E000016007E552E5CFDAFFE5509B
:10017000E5CFE0FFE5CFD8FF1000D9CFE6FFE1CF14
:10018000D9FF060EE1260E01390501E06BD1010E03
:1001900014CEDBFF15CEDFFF000EDBCF06F0010E25
:1001A000DBCF07F0010E061802E1080E071801E187
:1001B0003ED1020E061802E1070E071801E133D105
:1001C000010E061802E1070E071801E127D1060EFD
:1001D000061802E1060E071801E104D1050E061803
:1001E00002E1060E071801E1FAD0040E061802E13A
:1001F000060E071801E1F0D0060E061802E1050E02
:10020000071801E1CDD0050E061802E1050E07180A
:1002100001E1C3D0040E061802E1050E071801E142
:10022000B9D0060E061802E1040E071801E196D0B7
:10023000050E061802E1040E071801E18CD0040E29
:10024000061802E1040E071801E182D0040E061818
:1002500002E1030E071860E0030E061802E1030E28
:10026000071857E0040E061802E1020E071835E0E1
:10027000030E061802E1020E07182CE0040E061801
:1002800002E1010E07180AE0030E061802E1010E52
:10029000071801E0E5D016CE88F0E3D083B005D092
:1002A000010EDE6E010EDD6E04D0020EDE6E010E5A
:1002B000DD6E9FC000FEA0C001FE0E01056B0E01A9
:1002C000020E046F010EDBCF07FEDFCF08FE15EC38
:1002D00008F0C7D016CE8BF0C4D083B205D0010E83
:1002E000DE6E020EDD6E04D0020EDE6E020EDD6EDC
:1002F0009FC000FEA0C001FE0E01056B0E01020EA4
:10030000046F010EDBCF07FEDFCF08FE15EC08F00F
:10031000A8D016CE8EF0A5D083B405D0010EDE6E27
:10032000030EDD6E04D0020EDE6E030EDD6E9FC086
:1003300000FEA0C001FE0E01056B0E01020E046F4F
:10034000010EDBCF07FEDFCF08FE15EC08F089D0E9
:1003500016CE64F086D016CE72F083D082B605D069
:10036000020EDE6E040EDD6E04D0010EDE6E040E93
:10037000DD6E9FC000FEA0C001FE0E01056B0E01E8
:10038000020E046F010EDBCF07FEDFCF08FE15EC77
:1003900008F067D016CE67F064D016CE7AF061D040
:1003A00082B405D0020EDE6E050EDD6E04D0010EA5
:1003B000DE6E050EDD6E9FC000FEA0C001FE0E01C8
:1003C000056B0E01020E046F010EDBCF07FEDFCFBF
:1003D00008FE15EC08F045D016CE6AF042D016CED5
:1003E00082F03FD082B205D0020EDE6E060EDD6EC8
:1003F00004D0010EDE6E060EDD6E9FC000FEA0C0B2
:1004000001FE0E01056B0E01020E046F010EDBCF23
:1004100007FEDFCF08FE15EC08F023D0010E000127
:10042000996F9A6B1ED00001996B9A6B1AD0020ECD
:10043000DE6E080EDD6E9FC000FEA0C001FE0E0144
:10044000056B0E01040E046F010EDBCF07FEDFCF3C
:1004500008FE42CE09FE41CE0AFE15EC08F001D09E
:1004600000D035D0020E0E01395D31E1030E21CEF0
:10047000DBFF020E22CEDBFF020EDBCF06F0030E07
:10048000DBCF07F0020E061801E107500EE0010E67
:10049000061801E1075001E019D0000EE66EE66A89
:1004A00032EC09F0E552E55212D0050E23CEDBFF07
:1004B000040E24CEDBFF040EDBCFE6FF050EDBCF00
:1004C000E6FF32EC09F0E552E55201D000D00E0112
:1004D000396B060EE15C02E2E16AE552E16EE5523B
:1004E000E7CFD9FF1200D9CFE6FFE1CFD9FF020E47
:1004F000E1260001875114E1000199519A1110E1A0
:1005000000018350010B02E0868101D08691000139
:10051000000186510001010B02E0868301D0869321
:1005200000018A5114E1000199519A1110E1000172
:100530008350020B02E0898101D089910001000102
:1005400089510001010B02E0898301D089930001E8
:100550008D5114E1000199519A1110E1000183506D
:10056000040B02E08C8101D08C91000100018C51C0
:100570000001010B02E08C8301D08C9300018751B4
:1005800040E10001010E991901E19A513AE100019F
:100590008350010B02E0868101D0869100018651D3
:1005A000010B0B6E00018651020B01E0010E0B5C8A
:1005B00028E0000186B105D0010EDE6E010EDD6E71
:1005C00004D0020EDE6E010EDD6E88C087F00001E1
:1005D000000186510001010B02E0868301D0869361
:1005E0009FC000FEA0C001FE0E01056B0E01020EB1
:1005F000046F010EDBCF07FEDFCF08FE15EC08F01D
:100600008A7400018A5140E10001010E991901E14B
:100610009A513AE100018350020B02E0898101D036
:10062000899100018951010B0B6E00018951020B68
:1006300001E0010E0B5C28E0000189B105D0010E3C
:10064000DE6E020EDD6E04D0020EDE6E020EDD6E78
:100650008BC08AF00001000189510001010B02E00A
:10066000898301D089939FC000FEA0C001FE0E01C6
:10067000056B0E01020E046F010EDBCF07FEDFCF0C
:1006800008FE15EC08F08A7400018D5140E100016C
:10069000010E991901E19A513AE100018350040BCE
:1006A00002E08C8101D08C9100018C51010B0B6E0A
:1006B00000018C51020B01E0010E0B5C28E00001EF
:1006C0008CB105D0010EDE6E030EDD6E04D0020E7D
:1006D000DE6E030EDD6E8EC08DF0000100018C51C8
:1006E0000001010B02E08C8301D08C939FC000FEBF
:1006F000A0C001FE0E01056B0E01020E046F010E7B
:10070000DBCF07FEDFCF08FE15EC08F08A7400018E
:1007100063511EE100018250080B02E0628101D0AA
:10072000629100016251010B0B6E00016251020BDC
:1007300001E0010E0B5C0CE064C063F000010001FD
:1007400062510001010B02E0628301D062938A745E
:10075000000166511EE100018250040B02E0658138
:1007600001D0659100016551010B0B6E00016551CF
:10077000020B01E0010E0B5C0CE067C066F00001AB
:10078000000165510001010B02E0658301D0659312
:100790008A74000169511EE100018250020B02E0DF
:1007A000688101D0689100016851010B0B6E000156
:1007B0006851020B01E0010E0B5C0CE06AC069F0AD
:1007C0000001000168510001010B02E0688301D0C3
:1007D00068938A74020EE15C02E2E16AE552E16E1E
:1007E000E552E7CFD9FF1200D9CFE6FFE1CFD9FF1D
:1007F000060EE1260001725147E00001715144E10B
:10080000000162B123D0020EDE6EDE6AF50EDE6EEE
:10081000010EDD6EDD52DD526BC00BF06CC00CF0D2
:10082000D8900C320B32D8900C320B32040E0BC025
:10083000DBFF050E0CC0DBFF0E01040E046F050E7E
:10084000DBCF09FE040EDBCF0AFE0CD0010EDE6EFC
:10085000DE6AF50EDE6E010EDD6EDD52DD520E013A
:10086000020E046F030EDBCF01FE020EDBCF00FE93
:100870000E01056B010EDBCF07FEDFCF08FE15EC86
:1008800008F08A7672C071F0060EE15C02E2E16A5D
:10089000E552E16EE552E7CFD9FF1200D9CFE6FF6E
:1008A000E1CFD9FF060EE12600017A5147E00001B1
:1008B000795144E1000165B123D0020EDE6EDE6A9B
:1008C000F60EDE6E010EDD6EDD52DD5273C00BF0F2
:1008D00074C00CF0D8900C320B32D8900C320B3222
:1008E000040E0BC0DBFF050E0CC0DBFF0E01040E77
:1008F000046F050EDBCF09FE040EDBCF0AFE0CD021
:10090000010EDE6EDE6AF60EDE6E010EDD6EDD526B
:10091000DD520E01020E046F030EDBCF01FE020E4C
:10092000DBCF00FE0E01056B010EDBCF07FEDFCF34
:1009300008FE15EC08F08A767AC079F0060EE15CC4
:1009400002E2E16AE552E16EE552E7CFD9FF12001B
:10095000D9CFE6FFE1CFD9FF060EE1260001825193
:1009600058E00001815155E1000168B12DD0020E1F
:10097000DE6EDE6AF70EDE6E010EDD6EDD52DD52DA
:100980007BC00BF07CC00CF0D8900C320B32D890AE
:100990000C320B32040E0BC0DBFF050E0CC0DBFF6C
:1009A0000E01040E046F050EDBCF09FE040EDBCF33
:1009B0000AFE040EDBCFE6FF050EDBCFE6FF32ECCE
:1009C00009F0E552E55213D0010EDE6EDE6AF70E35
:1009D000DE6E010EDD6EDD52DD520E01020E046F81
:1009E000000EE66EE66A32EC09F0E552E552030EBF
:1009F000DBCF01FE020EDBCF00FE0E01056B010E08
:100A0000DBCF07FEDFCF08FE15EC08F08A7682C048
:100A100081F0060EE15C02E2E16AE552E16EE55228
:100A2000E7CFD9FF1200D9CFE6FFE1CFD9FF040EFF
:100A3000E12625EC08F026EC09F038EC0AF0C9ECC8
:100A40000BF05EEC09F0020EDE6E080EDE6E860E16
:100A5000DE6E010EDD6EDD52DD52030EDBCFA0F047
:100A6000020EDBCF9FF0A0C09CF09FC09BF0000166
:100A70009B2B000E9C23020EDE6EDE6AF50EDE6EF0
:100A8000010EDD6EDD52DD52030EDBCF9EF0020E55
:100A9000DBCF9DF00E01296B2A6B9BC02BFE9CC007
:100AA0002CFE0E012D6B2E6B0E012F6B306B9DC03B
:100AB00031FE9EC032FE0E01336B346B0E01356B7E
:100AC000366B0E01376B386B9BEC05F03DEC08F094
:100AD0008A848A86000EE66EE66A32EC09F0E552F8
:100AE000E5520001B40E606F0001605101E0FCD7D7
:100AF0000001B40E606F0001605101E0FCD70001FD
:100B00005A0E616F8A948A96EEDC87EC0CF06CDEEC
:100B1000C5DE1EDF0001605103E18A7461C060F030
:100B2000F3D7040EE15C02E2E16AE552E16EE552C0
:060B3000E7CFD9FF12001F
:0A0B3600D9CFE6FFE1CFD9FF020E90
:100B4000E1260E01396B1BD9726A779A769A788AF8
:100B5000779E769E788E7794769478840F01030E34
:100B6000206F7796769678860F01020E106F779831
:100B7000769878880F01010E006F779076807880E4
:100B8000606A29CE0BF02ACE0CF0050ED8900B36F9
:100B90000C36E804FBE10BC0DEFF0CC0DDFF010EEC
:100BA000DBCFF8FEDFCFF9FE0E01F8690E01E00E93
:100BB000F96F2BCE0BF02CCE0CF0050ED8900B3627
:100BC0000C36E804FBE10BC0DEFF0CC0DDFF0E01BC
:100BD000E26B0E01E36B010EDBCFE0FEDFCFE1FE47
:100BE0002DCE0BF02ECE0CF0050ED8900B360C3619
:100BF000E804FBE10BC0DEFF0CC0DDFF0E01E66B7D
:100C00000E01E76B010EDBCFE4FEDFCFE5FE77924E
:100C1000768278820F01306B2FCE0BF030CE0CF045
:100C2000050ED8900B360C36E804FBE10BC0DEFF56
:100C30000CC0DDFF010EDBCFFCFEDFCFFDFE0E01A1
:100C4000FC690E01E00EFD6F31CE0BF032CE0CF0E0
:100C5000050ED8900B360C36E804FBE10BC0DEFF26
:100C60000CC0DDFF0E01EA6B0E01EB6B010EDBCF5A
:100C7000E8FEDFCFE9FE33CE0BF034CE0CF0050EEC
:100C8000D8900B360C36E804FBE10BC0DEFF0CC03D
:100C9000DDFF0E01EE6B0E01EF6B010EDBCFECFE04
:100CA000DFCFEDFE35CE0BF036CE0CF0050ED89032
:100CB0000B360C36E804FBE10BC0DEFF0CC0DDFF99
:100CC0000E01F26B0E01F36B010EDBCFF0FEDFCFF6
:100CD000F1FE37CE0BF038CE0CF0050ED8900B3667
:100CE0000C36E804FBE10BC0DEFF0CC0DDFF0E019B
:100CF000F66B0E01F76B010EDBCFF4FEDFCFF5FED6
:100D00000E01030E466F0E01476B0E01010E436F7D
:100D10000E019A0E446F0E01810E456F948E8B8CDE
:100D2000949C210E706E6F6A6E50E00BE842E842B0
:100D3000E842E842E842000901E1F6D7020EE15C30
:100D400002E2E16AE552E16EE552E7CFD9FF120017
:100D5000120015D80E01010E436F0E019A0E446F5A
:100D60000E01810E456F12000AD80E01040E436F6A
:100D70000E01BE0E446F0E01030E456F1200800E71
:100D80006F6E6EAEFED7120061CF10FE62CF0FFE07
:100D90000FCE0BF010CE0CF0050ED8900C320B32AB
:100DA000E804FBE10BC00FFE0CC010FE0F0E651433
:100DB0000E01116F60A604D00E01010E126F12D049
:100DC0000E01126B66CF14FE67CF15FE68CF16FEBC
:100DD00069CF17FE6ACF18FE6BCF19FE6CCF1AFED3
:100DE0006DCF1BFE609E120031CF1DFE32CF1CFE68
:100DF0001CCE0BF01DCE0CF0050ED8900C320B3231
:100E0000E804FBE10BC01CFE0CC01DFE0F0E0F0121
:100E100035150E011E6F0F0130A704D00E01010E13
:100E20001F6F12D00E011F6B36CF21FE37CF22FE6F
:100E300038CF23FE39CF24FE3ACF25FE3BCF26FE06
:100E40003CCF27FE3DCF28FE0F01309F1200D9CFA7
:100E5000E6FFE1CFD9FF020EE1266F50DF6E010EF3
:100E60006ECFDBFF010EDB90DB98DB9ADB9CDB9E19
:100E7000010EDB407F0BE76E010EE7CFDBFF010EBB
:100E8000DB50070A2CE0010A1FE0030A11E0010A07
:100E90000DE0070A09E0010A05E0030A01E021D09C
:100EA000779A20D077981ED077961CD077941AD056
:100EB0000E01395105E198DF0E01020E396F02D0A3
:100EC0000F01309F77920ED00E01395105E15CDFA2
:100ED0000E01010E396F01D0609E779003D0779C90
:100EE00001D000D0020EE15C02E2E16AE552E16E5F
:100EF000E552E7CFD9FF12000F01236B0F01246BDE
:100F0000050E00CE00FE01CE01FE000A06E00E0135
:100F1000D89000370137E804FBE101CE21FF00CE75
:100F200022FF04CE25FF0E01055103E00F01258DA0
:100F300012D00F01259D07CE26FF08CE27FF09CE30
:100F400028FF0ACE29FF0BCE2AFF0CCE2BFF0DCE99
:100F50002CFF0ECE2DFF0F010B0E206F12000F0184
:100F6000136B0F01146B050E00CE00FE01CE01FEC7
:100F7000000A06E00E01D89000370137E804FBE1D3
:100F800001CE11FF00CE12FF04CE15FF0E01055158
:100F900003E00F01158D12D00F01159D07CE16FF2E
:100FA00008CE17FF09CE18FF0ACE19FF0BCE1AFF85
:100FB0000CCE1BFF0DCE1CFF0ECE1DFF0F010A0E27
:100FC000106F12000F01036B0F01046B050E00CEB2
:100FD00000FE01CE01FE000A06E00E01D8900037A7
:100FE0000137E804FBE101CE01FF00CE02FF04CE91
:100FF00005FF0E01055103E00F01058D12D00F0111
:10100000059D07CE06FF08CE07FF09CE08FF0ACED2
:1010100009FF0BCE0AFF0CCE0BFF0DCE0CFF0ECE40
:101020000DFF0F01090E006F12000F0120B702D053
:1010300063DF0AD00F0110B702D091DF05D00F0196
:0A10400000B702D0BFDF00D012009D
:06104A00F29E0F01070EEB
:101050005D6F0F015C6B0E0E926E896A936A8A6AED
:10106000CE0E946E8B6A0F010B0E576F0F01DA0EC6
:10107000586F0F017F0E596F1200D08EF28EF28CD6
:101080001200F29CF29E1200996ACA6ACA84CB6866
:101090000C0EBB6E110E9C6EBC6A1200D9CFE6FF1F
:1010A000E1CFD9FFFD0EDB50010B02E0BB8801D080
:1010B000BB98FD0EDB50020B02E0BB8A01D0BB9A4D
:1010C000D950FD0FE96EFF0EDA20EA6E020E0F0B0B
:1010D00006E0EC52D890ED32EF32E806FAE1FD0E70
:1010E000DB50BC6EE552E7CFD9FF12009484996AB9
:1010F000CA6ACA84CB680F010C0E506F0F01516B86
:1011000094941200D9CFE6FFE1CFD9FFFD0EDB505A
:10111000010B03E00F01508902D00F015099FD0E21
:10112000DB50020B03E00F01508B02D00F01509BEC
:10113000D950FD0FE96EFF0EDA20EA6E020E0F0B9A
:1011400006E0EC52D890ED32EF32E806FAE1FD0EFF
:10115000DBCF51FFE552E7CFD9FF1200BC50BD5C99
:1011600001E0FCD71200BB6A93881200948C996A44
:10117000CA6ACA84CB680F010C0E4D6F0F014E6B0B
:10118000949C1200D9CFE6FFE1CFD9FFFD0EDB50D2
:10119000010B03E00F014D8902D00F014D99FD0EA7
:1011A000DB50020B03E00F014D8B02D00F014D9B72
:1011B000D950FD0FE96EFF0EDA20EA6E020E0F0B1A
:1011C00006E0EC52D890ED32EF32E806FAE1FD0E7F
:1011D000DBCF4EFFE552E7CFD9FF1200948E996A1C
:1011E000CA6ACA84CB680F010C0E4A6F0F014B6BA1
:1011F000949E1200D9CFE6FFE1CFD9FFFD0EDB5060
:10120000010B03E00F014A8902D00F014A99FD0E3C
:10121000DB50020B03E00F014A8B02D00F014A9B07
:10122000D950FD0FE96EFF0EDA20EA6E020E0F0BA9
:1012300006E0EC52D890ED32EF32E806FAE1FD0E0E
:10124000DBCF4BFFE552E7CFD9FF1200938A996AB3
:10125000CA6ACA84CB680F010C0E476F0F01486B36
:10126000939A1200D9CFE6FFE1CFD9FFFD0EDB50F4
:10127000010B03E00F01478902D00F014799FD0ED2
:10128000DB50020B03E00F01478B02D00F01479B9D
:10129000D950FD0FE96EFF0EDA20EA6E020E0F0B39
:1012A00006E0EC52D890ED32EF32E806FAE1FD0E9E
:1012B000DBCF48FFE552E7CFD9FF1200030ED56E12
:1012C000F90ED76E350ED66EF294F194F28AD58E61
:1012D0001200CD6ACD963F0ECD140009CD6ECF0E13
:1012E000CD142009CD6ECD82F30ECF6ECA0ECE6E18
:1012F0009E909F909D90CD9012009E90E70ECF6E95
:10130000950ECE6ECD8012009E90CD9012009380EF
:10131000F18CF292F28812009382F19AF090F09C94
:10132000F08612009384F188F092F08EF08812001B
:101330009386F186F094F182F08A1200D9CFE6FF0D
:10134000E1CFD9FFFD0EDBCF0BF0FE0EDBCF0CF0B3
:101350000CC00BF00C6A030E0B14756EFF0EE76EDB
:10136000FD0EDBCF0BF0FE0EDBCF0CF0E7500B16C3
:101370000C6A0B50746EFC0EDB50736E7F9E7F9C6C
:101380007F84F29E550E7E6EAA0E7E6E7F827FB2A5
:10139000FED77F94F28EE552E7CFD9FF1200D9CF66
:1013A000E6FFE1CFD9FFFC0EDBCFE6FFFD0EDBCF82
:1013B000E6FFFE0EDBCFE6FFC1DFE552E552E55268
:1013C000FD0EDBCFE6FFFE0EDBCFE6FF10D8E552C9
:1013D000E5520B6EFC0EDB500B5C03E1010E03D0FB
:1013E00002D0000E00D0E552E7CFD9FF1200D9CFCE
:1013F000E6FFE1CFD9FFFD0EDBCF0BF0FE0EDBCF1A
:101400000CF00CC00BF00C6A030E0B14756EFF0E83
:10141000E76EFD0EDBCF0BF0FE0EDBCF0CF0E750DE
:101420000B160C6A0B50746E7F9C7F9E7F800000B1
:101430000000735000D0E552E7CFD9FF1200746A64
:10144000756A7F9C7F9EF29E7F847F80550E7E6EA4
:10145000AA0E7E6E7F827FB2FED7742A745004E19A
:10146000752A755001E101D0F0D77F94F28E1200F9
:10147000C26AC16AC06AC46AC36A9E9C9F9C9D9CE2
:101480003F0EC114C009C16ECF0EC1140009C16E58
:10149000C196F80EC1140009C16EC08EF80EC014BA
:1014A0000209C06EC70EC0141009C06EC26AC280A5
:1014B0001200D9CFE6FFE1CFD9FF020EE126C350DB
:1014C000DF6E010EC4CFDBFFDECF0BF0DDCF0CF003
:1014D0000BC0F3FF0CC0F4FF00D0020EE15C02E28F
:1014E000E16AE552E16EE552E7CFD9FF1200C2A2F0
:1014F00002D0010E02D0000E00D012000000000049
:1015000000000000000000000000000000000000DB
:10151000000000000000000000001200D9CFE6FF2C
:10152000E1CFD9FFFE0EDB501F0BF36EF346F346FF
:10153000830EC214F310C26EE552E7CFD9FF12003A
:04154000C282120051
:0C154400D9CFE6FFE1CFD9FF040EE1266D
:10155000DF6A010EDB6A020EDB6A030EDB6A180E1D
:10156000F36E030EDBCFF4FFF350F45C73E2020E74
:10157000DB50030F080B0AE0030E0B6E020EDBCFED
:10158000E7FF0B50E726020EE7CFDBFF020EDB5032
:10159000300F800B0AE0300E0B6E020EDBCFE7FF40
:1015A0000B50E726020EE7CFDBFF010EDB50030FE7
:1015B000080B0AE0030E0B6E010EDBCFE7FF0B50AA
:1015C000E726010EE7CFDBFF010EDB50300F800B6B
:1015D0000AE0300E0B6E010EDBCFE7FF0B50E72663
:1015E000010EE7CFDBFF030EDF24080B02E0030E42
:1015F000DF26300EDF24800B02E0300EDF26D9CF4D
:10160000E9FFDACFEAFFD890EF36010EEB36020E93
:10161000EB36FC0EDBCF0BF0FD0EDBCF0CF0FE0E3D
:10162000DBCF0DF00B6A0C6A800E0D160B500C1000
:101630000D1001E0DF2AD950FC0FE96EFF0EDA2011
:10164000EA6ED890EF36010EEB36020EEB36030E43
:10165000DB2A85D7DFCF0BF0010EDBCF0CF0020EBB
:10166000DBCF0DF00BC005F00CC006F00DC007F08D
:1016700000D0040EE15C02E2E16AE552E16EE5525F
:10168000E7CFD9FF1200D9CFE6FFE1CFD9FFE6526D
:10169000FE0EDB500F0BDF6E300EDF2400D0E55264
:1016A000E552E7CFD9FF1200D9CFE6FFE1CFD9FF4E
:1016B0000A0EF36EFE0EDBCFF4FFF350F45C05E28E
:1016C000FE0EDB50300F10D00FD0240EF36EFE0E46
:1016D000DBCFF4FFF350F45C05E2FE0EDB50370F76
:1016E00003D002D0200E00D0E552E7CFD9FF120080
:1016F000D9CFE6FFE1CFD9FFFE0EDB500F0B0B6E0B
:10170000FE0EDB380F0B0A0DF3500B2400D0E55210
:10171000E7CFD9FF1200D9CFE6FFE1CFD9FF0E0105
:101720003B930E013B91FE0EDB500B6E0C6AFF0EDD
:10173000D8800B56000E0C560BC03AFE0E018A0ED6
:101740003C6F170E3D6FE552E7CFD9FF12000E0137
:101750003BA30ED00E013A2B0E013A5109E10E01C6
:101760003B8105D03DCEFAFF0E013C51F96EFADF08
:1017700012000E013B910E013B8312000E013B93C0
:1017800012000E013BA1FDD712000E01D70E3A6FD9
:02179000120045
:0E1792000001606B00015A0E616F0001626B76
:1017A00000018250080B02E0628101D062910001C9
:1017B000000162510001010B02E0628301D06293DB
:1017C0000001636B0001120E646F0001656B000184
:1017D0008250040B02E0658101D065910001000197
:1017E00065510001010B02E0658301D065930001A2
:1017F000666B0001120E676F0001686B000182507A
:10180000020B02E0688101D068910001000168517B
:101810000001010B02E0688301D068930001696B4D
:101820000001120E6A6F00016B6B6C6B00016F6B35
:10183000706B00016D6B6E6B0001716B0001726B60
:101840000001736B746B0001776B786B0001756B33
:10185000766B0001796B00017A6B00017B6B7C6B0E
:1018600000017F6B806B00017D6B7E6B0001816BE3
:101870000001826B0001010E836F0001856B000186
:10188000846B0001866B00018350010B02E08681AE
:1018900001D086910001000186510001010B02E098
:1018A000868301D086930001876B0001120E886F3A
:1018B0000001896B00018350020B02E0898101D095
:1018C00089910001000189510001010B02E0898327
:1018D00001D0899300018A6B0001120E8B6F000109
:1018E0008C6B00018350040B02E08C8101D08C9141
:1018F000000100018C510001010B02E08C8301D03A
:101900008C9300018D6B0001120E8E6F120077EC2C
:101910000AF000092EE100018351030A17E0010AD1
:101920000CE0030A01E01CD059EC0AF0F3CF7BF085
:10193000F4CF7CF00001832B14D059EC0AF0F3CFE4
:1019400073F0F4CF74F00001832B0BD059EC0AF044
:10195000F3CF6BF0F4CF6CF00001010E836F01D078
:1019600000D083C0E6FF8EEC0AF0E5527EEC0AF070
:10197000C2821200D9CFE6FFE1CFD9FFE6520001C3
:10198000605102E000016007E552E552E7CFD9FF60
:02199000120043
:0E199200060EF66E000EF76E000EF86E0001E7
:1019A0000900F550946F0900F550956F03E19467B5
:1019B00001D03DD00900F5508F6F0900F550906FB0
:1019C0000900F550916F09000900F550E96E090012
:1019D000F550EA6E090009000900F550926F090000
:1019E000F550936F09000900F6CF96F0F7CF97F006
:1019F000F8CF98F08FC0F6FF90C0F7FF91C0F8FFC6
:101A00000001925302E1935307E00900F550EE6E96
:101A10009207F8E29307F9D796C0F6FF97C0F7FF51
:101A200098C0F8FF00019407000E955BBFD7120025
:101A3000410EF36E00EE00F00E0E01D81200EA60C7
:101A400002D0EE6AFCD7F350E9601200EE6AFCD7D0
:101A50001DEE00F02DEE00F0F86A0A9CC9EC0CF0C7
:0C1A600007EC00F013EC05F0FBD71200BF
:020000040030CA
:0100000015EA
:0100010002FC
:0100020046B7
:010003004CB0
:0100050008F2
:010006008178
:00000001FF
