:020000040000FA
:06000000DEEF07F0120024
:020006000000F8
:06000800C0EF04F012003D
:02000E001200DE
:060018000DEF05F01200DF
:02001E00F29E50
:100020000F015D6B5C6B926A896A0C0E936E8A6A33
:10003000946A8B6A0B0E576FFA0E586F070E596F42
:100040001200D08EF28EF28C1200F29CF29E120000
:100050009588996ACA6ACA84CB680C0EBB6E110E69
:100060009C6EBC6A95981200D9CFE6FFE1CFD9FF0C
:10007000FD0EDB50010B02E0BB8801D0BB98FD0EEA
:10008000DB50020B02E0BB8A01D0BB9AD950FD0FB6
:10009000E96EFF0EDA20EA6E020E0F0B06E0EC525C
:1000A000D890ED32EF32E806FAE1FD0EDB50BC6E7F
:1000B000E552E7CFD9FF12009484996ACA6ACA84CC
:1000C000CB680F010C0E506F516B94941200D9CF76
:1000D000E6FFE1CFD9FFFD0EDB50010B03E00F017E
:1000E000508902D00F015099FD0EDB50020B02E047
:1000F000508B01D0509BD950FD0FE96EFF0EDA20D6
:10010000EA6E020E0F0B06E0EC52D890ED32EF32A1
:10011000E806FAE1FD0EDBCF51FFE552E7CFD9FF4C
:100120001200BC50BD5CFDE11200BB6A9388120056
:10013000948C996ACA6ACA84CB680F010C0E4D6F01
:100140004E6B949C1200D9CFE6FFE1CFD9FFFD0E94
:10015000DB50010B03E00F014D8902D00F014D99D7
:10016000FD0EDB50020B02E04D8B01D04D9BD950B0
:10017000FD0FE96EFF0EDA20EA6E020E0F0B06E0AD
:10018000EC52D890ED32EF32E806FAE1FD0EDBCF0B
:100190004EFFE552E7CFD9FF1200996ACA6ACA84B6
:1001A000CB680F010C0E4A6F4B6B1200D9CFE6FFE4
:1001B000E1CFD9FFFD0EDB50010B03E00F014A89AF
:1001C00002D00F014A99FD0EDB50020B02E04A8B70
:1001D00001D04A9BD950FD0FE96EFF0EDA20EA6E7E
:1001E000020E0F0B06E0EC52D890ED32EF32E8062B
:1001F000FAE1FD0EDBCF4BFFE552E7CFD9FF12004E
:10020000938A996ACA6ACA84CB680F010C0E476F39
:10021000486B939A1200D9CFE6FFE1CFD9FFFD0ECC
:10022000DB50010B03E00F01478902D00F01479912
:10023000FD0EDB50020B02E0478B01D0479BD950EB
:10024000FD0FE96EFF0EDA20EA6E020E0F0B06E0DC
:10025000EC52D890ED32EF32E806FAE1FD0EDBCF3A
:1002600048FFE552E7CFD9FF1200030ED56EF90E15
:10027000D76E350ED66EF294F194F28AD58E1200B6
:10028000CD6ACD963F0ECD140009CD6ECF0ECD14A4
:100290002009CD6ECD82F30ECF6ECA0ECE6E9E902B
:1002A0009F909D90CD9012009E90E70ECF6E950E80
:1002B000CE6ECD8012009E90CD9012009380F18C76
:1002C000F292F28812009382F19AF090F09CF086FC
:1002D00012009384F188F092F08EF08812009386D9
:1002E000F186F094F182F08A1200D9CFE6FFE1CFD7
:1002F000D9FFFE0EDBCF0CF00CC00BF0030E0C147C
:10030000756EFF0EE76EFD0EDBCF0BF0E7500B16A0
:100310000B50746EFC0EDB50736E7F9E7F9C7F844F
:10032000F29E550E7E6EAA0E7E6E7F827FB2FED743
:100330007F94F28EE552E7CFD9FF1200D9CFE6FFC6
:10034000E1CFD9FFFC0EDBCFE6FFFD0EDBCFE6FFF2
:10035000FE0EDBCFE6FFC9DFE552E552E552FD0EAA
:10036000DBCFE6FFFE0EDBCFE6FF0ED8E552E5520F
:100370000B6EFC0EDB500B5C02E1010E01D0000E97
:10038000E552E7CFD9FF1200D9CFE6FFE1CFD9FF81
:10039000FD0EDBCF0BF0FE0EDBCF0CF00CC00BF034
:1003A0000C6A030E0B14756EFF0EE76EFD0EDBCFAD
:1003B0000BF0FE0EDBCF0CF0E7500B160C6A0B5067
:1003C000746E7F9C7F9E7F8000000000735000D081
:1003D000E552E7CFD9FF1200746A756A7F9C7F9E51
:1003E000F29E7F847F80550E7E6EAA0E7E6E7F8287
:1003F0007FB2FED7742A7450F5E1752A7550F2E188
:100400007F94F28E1200C26AC16AC06AC46AC36A6B
:100410009E9C9F9C9D9C3F0EC114C009C16ECF0E37
:10042000C1140009C16EC196F80EC1140009C16E55
:10043000C08EF80EC0140209C06EC70EC014100999
:10044000C06EC26AC2801200D9CFE6FFE1CFD9FFE9
:10045000020EE126C350DF6E010EC4CFDBFFDECFFC
:100460000BF0DDCF0CF00BC0F3FF0CC0F4FF020E5D
:10047000E15C02E2E16AE552E16EE552E7CFD9FFC5
:100480001200C2B2010C000C0000000000000000CD
:10049000000000000000000000000000000000005C
:1004A0000000000000001200D9CFE6FFE1CFD9FF25
:1004B000FE0EDB501F0BF36EF346F346830EC214A1
:1004C000F310C26EE552E7CFD9FF1200C2821200CC
:1004D000D9CFE6FFE1CFD9FF020EE1260E01396B3D
:1004E00007D9726A779A769A788A779E769E788EFE
:1004F0007794769478840F01030E206F7796769622
:100500007886020E106F779876987888010E006FC3
:10051000779076807880606A29CE0BF02ACE0CF036
:10052000050ED8900B360C36E804FBE10BC0DEFF5D
:100530000CC0DDFF010EDBCFF8FEDFCFF9FE0E01B0
:10054000F869E00EF96F2BCE0BF02CCE0CF0050EF7
:10055000D8900B360C36E804FBE10BC0DEFF0CC074
:10056000DDFF0E01E26BE36B010EDBCFE0FEDFCFC0
:10057000E1FE2DCE0BF02ECE0CF0050ED8900B36F2
:100580000C36E804FBE10BC0DEFF0CC0DDFF0E0102
:10059000E66BE76B010EDBCFE4FEDFCFE5FE779283
:1005A000768278820F01306B2FCE0BF030CE0CF0BC
:1005B000050ED8900B360C36E804FBE10BC0DEFFCD
:1005C0000CC0DDFF010EDBCFFCFEDFCFFDFE0E0118
:1005D000FC69E00EFD6F31CE0BF032CE0CF0050E53
:1005E000D8900B360C36E804FBE10BC0DEFF0CC0E4
:1005F000DDFF0E01EA6BEB6B010EDBCFE8FEDFCF18
:10060000E9FE33CE0BF034CE0CF0050ED8900B364D
:100610000C36E804FBE10BC0DEFF0CC0DDFF0E0171
:10062000EE6BEF6B010EDBCFECFEDFCFEDFE35CED8
:100630000BF036CE0CF0050ED8900B360C36E804D5
:10064000FBE10BC0DEFF0CC0DDFF0E01F26BF36BB4
:10065000010EDBCFF0FEDFCFF1FE37CE0BF038CE50
:100660000CF0050ED8900B360C36E804FBE10BC0FD
:10067000DEFF0CC0DDFF0E01F66BF76B010EDBCF6A
:10068000F4FEDFCFF5FE030E466F476B010E436F9E
:100690009A0E446F810E456F93868A869394210E3D
:1006A000706E6F6A6E50E00BE842E842E842E84242
:1006B000E8420009F7E0020EE15C02E2E16AE5527D
:1006C000E16EE552E7CFD9FF1200120011D80E01FA
:1006D000010E436F9A0E446F810E456F120008D8C9
:1006E0000E01040E436FBE0E446F030E456F1200E1
:1006F000800E6F6E6EAEFED7120061CF10FE62CF1D
:100700000FFE0FCE0BF010CE0CF0050ED8900C3271
:100710000B32E804FBE10BC00FFE0CC010FE0F0E05
:1007200065140E01116F60A603D0010E126F11D077
:10073000126B66CF14FE67CF15FE68CF16FE69CF29
:1007400017FE6ACF18FE6BCF19FE6CCF1AFE6DCF65
:100750001BFE609E120031CF1DFE32CF1CFE1CCE50
:100760000BF01DCE0CF0050ED8900C320B32E804C5
:10077000FBE10BC01CFE0CC01DFE0F0E0F0135155A
:100780000E011E6F0F0130A704D00E01010E1F6F66
:1007900012D00E011F6B36CF21FE37CF22FE38CF8D
:1007A00023FE39CF24FE3ACF25FE3BCF26FE3CCF99
:1007B00027FE3DCF28FE0F01309F1200D9CFE6FF64
:1007C000E1CFD9FF020EE1266F50DF6E010E6ECF32
:1007D000DBFFDB90DB98DB9ADB9CDB9EDB407F0B57
:1007E000E76E010EE7CFDBFFDB50070A2BE0010AC3
:1007F0001EE0030A10E0010A0CE0070A08E0010A03
:1008000004E0030A20E1779A1ED077981CD07796EF
:100810001AD0779418D00E01395105E19CDF0E01F2
:10082000020E396F02D00F01309F77920CD00E016B
:10083000395105E162DF0E01010E396F01D0609E72
:10084000779001D0779C020EE15C02E2E16AE5520A
:10085000E16EE552E7CFD9FF12000F01236B246B45
:10086000050E000A06E00E01D89000370137E804B3
:10087000FBE101CE21FF00CE22FF04CE25FF0E01B9
:10088000055103E00F01258D12D00F01259D07CEE4
:1008900026FF08CE27FF09CE28FF0ACE29FF0BCE60
:1008A0002AFF0CCE2BFF0DCE2CFF0ECE2DFF0B0EF4
:1008B000206F12000F01136B146B050E000A06E087
:1008C0000E01D89000370137E804FBE101CE11FF9B
:1008D00000CE12FF04CE15FF0E01055103E00F01FB
:1008E000158D12D00F01159D07CE16FF08CE17FFEC
:1008F00009CE18FF0ACE19FF0BCE1AFF0CCE1BFF34
:100900000DCE1CFF0ECE1DFF0A0E106F12000F0140
:10091000036B046B050E000A06E00E01D890003749
:100920000137E804FBE101CE01FF00CE02FF04CE57
:1009300005FF0E01055103E00F01058D12D00F01D7
:10094000059D07CE06FF08CE07FF09CE08FF0ACE99
:1009500009FF0BCE0AFF0CCE0BFF0DCE0CFF0ECE07
:100960000DFF090E006F12000F0120B702D02DEF0E
:1009700004F010B702D05AEF04F000A7C8DF12004D
:10098000DACFE4FFE2CFDAFFE9CFE4FFEACFE4FF1A
:10099000F6CFE4FFF7CFE4FFF5CFE4FFF3CFE4FFBA
:1009A000F4CFE4FFFACFE4FF00EE00F00B0EE80412
:1009B00003E3EECFE4FFFBD700EE0BF0030EE804F9
:1009C00003E3EECFE4FFFBD7E652DEEC03F041D8C1
:1009D0008A7AE55200EE0DF0030EE80403E3E5CF5A
:1009E000EDFFFBD700EE0AF00B0EE80403E3E5CFC2
:1009F000EDFFFBD7E5CFFAFFE5CFF4FFE5CFF3FF3F
:100A0000E5CFF5FFE5CFF7FFE5CFF6FFE5CFEAFF4E
:100A1000E5CFE9FFE5CFDAFF1100D8CFE4FFE0CF63
:100A2000E4FFE46EDACFE4FFE652F2A409D0F294D8
:100A3000F90ED76E350ED66E0001605101E06007E9
:100A4000E552E5CFDAFFE550E5CFE0FFE5CFD8FF8F
:100A50001000D9CFE6FFE1CFD9FF060EE1260E0147
:100A6000390525E1010E14CEDBFF15CEDFFFD9CF0E
:100A7000E9FFDACFEAFFEE1855E1010EEE1852E178
:100A8000020EDE6E010EDD6E9FC000FEA0C001FEF4
:100A9000056B040E046F010EDBCF07FEDFCF08FEEF
:100AA00042CE09FE41CE0AFEB4EC04F03BD0020E69
:100AB000395D38E1030E21CEDBFF020E22CEDBFFD3
:100AC000DBCF06F0030EDBCF07F0020E061802E1C3
:100AD000030E071820E0010E061802E1030E0718A6
:100AE00016E0020E061802E1070E07180AE0010ED2
:100AF000061818E1070E071815E1E668030EE66E02
:100B000003D0000EE66EE66AA3EC00F009D0E668BA
:100B1000030EE66E03D0000EE66EE66A67EC00F0A8
:100B2000E552E5520E01396B060EE15C02E2E16A24
:100B3000E552E16EE552E7CFD9FF1200D9CFE6FFCB
:100B4000E1CFD9FF040EE1268B940FEC00F05CECB2
:100B500000F098EC00F08BEC07F035EC01F0020EA1
:100B6000DE6E010EDE6EB80EDE6E010EDD6EDD5243
:100B7000DD52030EDBCFA0F0020EDBCF9FF0A0C052
:100B80009AF09FC099F00001992B000E9A23010E54
:100B9000DE6E070EDE6E820EDE6E010EDD6EDD5243
:100BA000DD52030EDBCF9CF0020EDBCF9BF0010E7B
:100BB000DE6E030EDE6E860EDE6E010EDD6EDD5223
:100BC000DD52030EDBCF9EF0020EDBCF9DF00E0157
:100BD000296B2A6B99C02BFE9AC02CFE2D6B2E6BB5
:100BE0002F6B306B9BC031FE9CC032FE9DC033FE2C
:100BF0009EC034FE356B366B376B386B68EC02F099
:100C000021EC00F08A888A8A000EE66EE66A67ECBC
:100C100000F0E552E552000EE66EE66AA3EC00F045
:100C2000E552E5520001B40E606F6051FEE1B40E72
:100C3000606F6051FEE15A0E616F8A988A9A605126
:0A0C4000FEE18A7861C060F0FAD787
:060C4A00D9CFE6FFE1CF67
:100C5000D9FF040EE126DF6A010EDB6A020EDB6AB1
:100C6000030EDB6A180EF36E030EDBCFF4FFF350B6
:100C7000F45C6FE2020EDB50030F080B0AE0030E78
:100C80000B6E020EDBCFE7FF0B50E726020EE7CF1D
:100C9000DBFF020EDB50300F800B0AE0300E0B6ED4
:100CA000020EDBCFE7FF0B50E726020EE7CFDBFF9C
:100CB000010EDB50030F080B0AE0030E0B6E010E52
:100CC000DBCFE7FF0B50E726010EE7CFDBFF010E7E
:100CD000DB50300F800B0AE0300E0B6E010EDBCFC5
:100CE000E7FF0B50E726010EE7CFDBFF030EDF2403
:100CF000080B02E0030EDF26300EDF24800B02E03B
:100D0000300EDF26D9CFE9FFDACFEAFFD890EF36F1
:100D1000010EEB36020EEB36FC0EFD0EFE0EDBCFA7
:100D20000DF00B6A0C6A800E0D160B500C100D1096
:100D300001E0DF2AD950FC0FE96EFF0EDA20EA6EDF
:100D4000D890EF36010EEB36020EEB36030EDB2A9F
:100D500089D7DFCF0BF0010EDBCF0CF0020EDBCF1B
:100D60000DF00BC005F00CC006F00DC007F0040E2E
:100D7000E15C02E2E16AE552E16EE552E7CFD9FFBC
:100D80001200D9CFE6FFE1CFD9FFE652FE0EDB50CD
:100D90000F0BDF6E300EDF24E552E552E7CFD9FFAF
:100DA0001200D9CFE6FFE1CFD9FF0A0EF36EFE0E97
:100DB000DBCFF4FFF350F45C04E2FE0EDB50300FA7
:100DC0000DD0240EF36EFE0EDBCFF4FFF350F45C77
:100DD00004E2FE0EDB50370F01D0200EE552E7CFC4
:100DE000D9FF1200D9CFE6FFE1CFD9FFFE0EDB50CD
:100DF0000F0B0B6EFE0EDB380F0B0A0DF3500B249E
:100E0000E552E7CFD9FF1200D9CFE6FFE1CFD9FFF6
:100E10000E013B933B91FE0EDB500B6E0C6AFF0EF6
:100E2000D8800B56000E0C560BC03AFE700E3C6F6D
:100E30000E0E3D6FE552E7CFD9FF12000E013BA326
:100E40000BD03A2B3A5108E13B8105D03DCEFAFF59
:100E50000E013C51F96EFADF12000E013B913B830B
:100E600012000E013B9312000E013BA1FDD71200B0
:080E70000E01D70E3A6F1200CB
:080E7800060EF66E000EF76E87
:100E8000000EF86E00010900F550946F0900F5504E
:100E9000956F03E1946701D03DD00900F5508F6F45
:100EA0000900F550906F0900F550916F0900090095
:100EB000F550E96E0900F550EA6E090009000900D5
:100EC000F550926F0900F550936F09000900F6CFB5
:100ED00096F0F7CF97F0F8CF98F08FC0F6FF90C05C
:100EE000F7FF91C0F8FF0001925302E1935307E02E
:100EF0000900F550EE6E9207F8E29307F9D796C015
:100F0000F6FF97C0F7FF98C0F8FF00019407000EA6
:060F1000955BBFD7120043
:0A0F16000001606B5A0E616F010EBE
:100F2000836F856B846B120041EC02F0000929E1AC
:100F300000018351030A14E0010A09E0030A19E1E0
:100F400024EC02F0F3CF7BF0F4CF7CF006D024EC5D
:100F500002F0F3CF73F0F4CF74F00001832B09D0CB
:100F600024EC02F0F3CF6BF0F4CF6CF00001010E33
:100F7000836F83C0E6FF54EC02F0E55244EC02F0CC
:100F8000C2821200D9CFE6FFE6520001605101E0B3
:0C0F90006007E552E552E7CFD9FF1200E0
:040F9C00410EF36EA1
:100FA00000EE00F00E0E01D81200EA6002D0EE6AE8
:0C0FB000FCD7F350E9601200EE6AFCD799
:040FBC001DEE00F036
:100FC0002DEE00F0F86A0A9C3CEC07F007EC00F00C
:080FD0009EEC05F0FBD71200B6
:020000040030CA
:0100000015EA
:0100010002FC
:0100020046B7
:010003004CB0
:0100050009F1
:010006008178
:00000001FF
