:020000040000FA
:0600000005EF0AF01200FA
:020006000000F8
:060008000FEF00F01200F2
:02000E001200DE
:060018005CEF00F0120095
:02001E00DACF37
:10002000E4FFE2CFDAFFE9CFE4FFEACFE4FFF6CF67
:10003000E4FFF7CFE4FFF5CFE4FFF3CFE4FFF4CF25
:10004000E4FFFACFE4FF00EE00F00B0EE80403E358
:10005000EECFE4FFFBD700EE0BF0030EE80403E362
:10006000EECFE4FFFBD7E6525AEC05F06FD98A7861
:10007000E55200EE0DF0030EE80403E3E5CFEDFFDB
:10008000FBD700EE0AF00B0EE80403E3E5CFEDFF2B
:10009000FBD7E5CFFAFFE5CFF4FFE5CFF3FFE5CFE0
:1000A000F5FFE5CFF7FFE5CFF6FFE5CFEAFFE5CFB8
:1000B000E9FFE5CFDAFF1100D8CFE4FFE0CFE4FF9E
:1000C000E46EDACFE4FFE2CFDAFFE9CFE4FFEACF74
:1000D000E4FFF6CFE4FFF7CFE4FFF5CFE4FFF3CF83
:1000E000E4FFF4CFE4FFFACFE4FF00EE00F00B0EE4
:1000F000E80403E3EECFE4FFFBD700EE0BF0030EC2
:10010000E80403E3EECFE4FFFBD7E652F2A415D0F8
:10011000F294FB0ED76EA70ED66E0001635101E07C
:100120006307665101E06607695101E069076C5198
:1001300001E06C07605101E060079EA018D09E901E
:10014000AE0ECF6E990ECE6E00016E5101E06E07BD
:10015000705101E07007725101E07207745101E0C3
:1001600074076AD8830EC2140009C26EC2829EACA4
:100170003AD09E9CC2507C0BE842E842040804E15D
:10018000C4CF7CF0C3CF7DF0C2507C0BE842E84284
:10019000020809E1830EC2141009C26EC4CF7AF0BE
:1001A000C3CF7BF0C282C2507C0BE842E842010818
:1001B00009E1830EC2140809C26EC4CF78F0C3CF20
:1001C00079F0C282C2507C0BE842E842000909E1A2
:1001D000830EC2140409C26EC4CF76F0C3CF77F089
:1001E000C282C46AC36AE55200EE0DF0030EE80451
:1001F00003E3E5CFEDFFFBD700EE0AF00B0EE804BA
:1002000003E3E5CFEDFFFBD7E5CFFAFFE5CFF4FF42
:10021000E5CFF3FFE5CFF5FFE5CFF7FFE5CFF6FF3D
:10022000E5CFEAFFE5CFE9FFE5CFDAFFE550E5CF1F
:10023000E0FFE5CFD8FF1000D9CFE6FFE1CFD9FF2F
:10024000020EE12600016851020B1AE0725118E11A
:1002500073C072F0030EDE6E040EDD6E82C000FE0F
:1002600083C001FE0E01056B046F010EDBCF07FE9C
:10027000DFCF08FE7CC009FE7DC00AFE30EC06F030
:1002800000016B51020B1AE0745118E175C074F053
:10029000030EDE6EDD6E82C000FE83C001FE0E0125
:1002A000056B040E046F010EDBCF07FEDFCF08FEE7
:1002B00076C009FE77C00AFE30EC06F000016551F9
:1002C000020B1BE0705119E171C070F0030EDE6E7D
:1002D000020EDD6E82C000FE83C001FE0E01056BC2
:1002E000040E046F010EDBCF07FEDFCF08FE78C0DF
:1002F00009FE79C00AFE30EC06F000016251020BE3
:100300001BE06E5119E16FC06EF0030EDE6E010E40
:10031000DD6E82C000FE83C001FE0E01056B040E7F
:10032000046F010EDBCF07FEDFCF08FE7AC009FEA7
:100330007BC00AFE30EC06F0020EE15C02E2E16AEC
:10034000E552E16EE552E7CFD9FF1200D9CFE6FFC3
:10035000E1CFD9FF060EE1260E01390501E0AED04E
:10036000010E14CEDBFF15CEDFFFDFCF06F0DBCFB3
:1003700007F0061802E1050E071801E18CD0050E02
:10038000061802E1040E071801E182D0040E0618D7
:1003900002E1040E071801E178D0060E061802E10A
:1003A000040E07186AE0050E061802E1030E07188E
:1003B00061E0040E061802E1030E071858E0060E6D
:1003C000061802E1030E07184AE0050E061802E1BE
:1003D000020E071841E0040E061802E1020E07188B
:1003E00038E0060E061802E1020E071823E0050E9B
:1003F000061802E1010E07181AE0040E061802E1C1
:10040000010E071811E0060E061801E090D0010E4B
:10041000071801E08CD082B803D0010EDE6E3ED00A
:10042000020EDE6E010E3AD016CE64F080D016CEEB
:100430006FF07DD082BA04D0010EDE6E020E02D0C3
:10044000020EDE6EDD6E82C000FE83C001FE056B13
:100450002CD016CE67F06BD016CE71F068D083B674
:1004600002D0010E01D0020EDE6E030E17D016CEA2
:100470006DF05DD016CE75F05AD083B402D0010E67
:1004800001D0020EDE6E040E09D016CE6AF04FD0F7
:1004900016CE73F04CD0020EDE6E050EDD6E82C0FD
:1004A00000FE83C001FE056B020E046F010EDBCF60
:1004B00007FEDFCF08FE30EC06F039D0020E395DC2
:1004C00036E1030E21CEDBFF020E22CEDBFFDBCFB7
:1004D00006F0030EDBCF07F0020E061801E107500D
:1004E0000DE0010E061823E1075021E1E66A87ECD2
:1004F00006F0E552E668030EE66E15D0050E23CE33
:10050000DBFF040E24CEDBFFDBCFE6FF050EDBCFE7
:10051000E6FF87EC06F0E552E552040EDBCFE6FF7E
:10052000050EDBCFE6FFBAEC06F0E552E5520E0110
:10053000396B060EE15C02E2E16AE552E16EE552DA
:10054000E7CFD9FF1200D9CFE6FFE1CFD9FF020EE6
:10055000E1260001635130E18250100B02E062811C
:1005600001D062916251010B0B6E6251020B01E0EE
:10057000010E0B5C21E062A104D0020EDE6E010EC2
:1005800002D0010EDE6EDD6E64C063F06251010BBD
:1005900002E0628301D0629382C000FE83C001FE4C
:1005A0000E01056B020E046F010EDBCF07FEDFCFDD
:1005B00008FE30EC06F08A780001665130E1825086
:1005C000200B02E0658101D065916551010B0B6E36
:1005D0006551020B01E0010E0B5C21E065A103D027
:1005E000020EDE6E03D0010EDE6E020EDD6E67C0FF
:1005F00066F06551010B02E0658301D0659382C00E
:1006000000FE83C001FE0E01056B020E046F010E99
:10061000DBCF07FEDFCF08FE30EC06F08A78000162
:1006200069512FE18350040B02E0688101D0689189
:100630006851010B0B6E6851020B01E0010E0B5C5F
:1006400020E068A102D0020E01D0010EDE6E040E81
:10065000DD6E6AC069F06851010B02E0688301D069
:10066000689382C000FE83C001FE0E01056B020E7E
:10067000046F010EDBCF07FEDFCF08FE30EC06F083
:100680008A7800016C512FE18350080B02E06B81E6
:1006900001D06B916B51010B0B6E6B51020B01E0A2
:1006A000010E0B5C20E06BA102D0020E01D0010E06
:1006B000DE6E030EDD6E6DC06CF06B51010B02E05F
:1006C0006B8301D06B9382C000FE83C001FE0E01DC
:1006D000056B020E046F010EDBCF07FEDFCF08FEB5
:1006E00030EC06F08A78020EE15C02E2E16AE55243
:1006F000E16EE552E7CFD9FF1200D9CFE6FFE1CF97
:10070000D9FF040EE1263CEC06F074EC06F049EC4F
:1007100009F064EC07F06FEC07F055EC06F0020E00
:10072000DE6E050EDE6E720EDE6E010EDD6EDD52C9
:10073000DD52030EDBCF83F0020EDBCF82F083C0ED
:100740007FF082C07EF000017E2B000E7F23020E20
:10075000DE6EDE6AFB0EDE6E010EDD6EDD52DD52F8
:10076000030EDBCF81F0020EDBCF80F00E01296B90
:100770002A6B7EC02BFE7FC02CFE2D6B2E6B2F6B49
:10078000306B80C031FE81C032FE336B346B356B11
:10079000366B376B386B83EC07F0E4EC03F06DECF1
:1007A00006F08A8A8A880001E00E606F6051FEE1DF
:1007B000780E616F8A9A8A98C6DE00016051FCE16A
:0807C0008A7A61C060F0F8D7ED
:0807C800D9CFE6FFE1CFD9FF14
:1007D000020EE1260E01396B07D9726A779A769A72
:1007E000788A779E769E788E7794769478840F01B7
:1007F000030E206F779676967886020E106F7798A4
:1008000076987888010E006F779076807880606A9D
:1008100029CE0BF02ACE0CF0050ED8900B360C36F4
:10082000E804FBE10BC0DEFF0CC0DDFF010EDBCFF7
:10083000F8FEDFCFF9FE0E01F869E00EF96F2BCE5E
:100840000BF02CCE0CF0050ED8900B360C36E804CD
:10085000FBE10BC0DEFF0CC0DDFF0E01E26BE36BC2
:10086000010EDBCFE0FEDFCFE1FE2DCE0BF02ECE72
:100870000CF0050ED8900B360C36E804FBE10BC0EB
:10088000DEFF0CC0DDFF0E01E66BE76B010EDBCF78
:10089000E4FEDFCFE5FE7792768278820F01306B3F
:1008A0002FCE0BF030CE0CF0050ED8900B360C3658
:1008B000E804FBE10BC0DEFF0CC0DDFF010EDBCF67
:1008C000FCFEDFCFFDFE0E01FC69E00EFD6F31CEB8
:1008D0000BF032CE0CF0050ED8900B360C36E80437
:1008E000FBE10BC0DEFF0CC0DDFF0E01EA6BEB6B22
:1008F000010EDBCFE8FEDFCFE9FE33CE0BF034CEC6
:100900000CF0050ED8900B360C36E804FBE10BC05A
:10091000DEFF0CC0DDFF0E01EE6BEF6B010EDBCFD7
:10092000ECFEDFCFEDFE35CE0BF036CE0CF0050E33
:10093000D8900B360C36E804FBE10BC0DEFF0CC090
:10094000DDFF0E01F26BF36B010EDBCFF0FEDFCFAC
:10095000F1FE37CE0BF038CE0CF0050ED8900B36EA
:100960000C36E804FBE10BC0DEFF0CC0DDFF0E011E
:10097000F66BF76B010EDBCFF4FEDFCFF5FE030E57
:10098000466F476B010E436F9A0E446F810E456FA1
:10099000948E8B8C949C210E706E6F6A6E50E00B5F
:1009A000E842E842E842E842E8420009F7E0020E85
:1009B000E15C02E2E16AE552E16EE552E7CFD9FF80
:1009C0001200120011D80E01010E436F9A0E446FEF
:1009D000810E456F120008D80E01040E436FBE0E43
:1009E000446F030E456F1200800E6F6E6EAEFED721
:1009F000120061CF10FE62CF0FFE0FCE0BF010CEB3
:100A00000CF0050ED8900C320B32E804FBE10BC061
:100A10000FFE0CC010FE0F0E65140E01116F60A6C4
:100A200003D0010E126F11D0126B66CF14FE67CF88
:100A300015FE68CF16FE69CF17FE6ACF18FE6BCF82
:100A400019FE6CCF1AFE6DCF1BFE609E120031CFD7
:100A50001DFE32CF1CFE1CCE0BF01DCE0CF0050E81
:100A6000D8900C320B32E804FBE10BC01CFE0CC02A
:100A70001DFE0F0E0F0135150E011E6F0F0130A761
:100A800004D00E01010E1F6F12D00E011F6B36CF66
:100A900021FE37CF22FE38CF23FE39CF24FE3ACFB6
:100AA00025FE3BCF26FE3CCF27FE3DCF28FE0F0183
:100AB000309F1200D9CFE6FFE1CFD9FF020EE12629
:100AC0006F50DF6E010E6ECFDBFFDB90DB98DB9AA1
:100AD000DB9CDB9EDB407F0BE76E010EE7CFDBFF8D
:100AE000DB50070A2BE0010A1EE0030A10E0010AAE
:100AF0000CE0070A08E0010A04E0030A20E1779A03
:100B00001ED077981CD077961AD0779418D00E0103
:100B1000395105E19CDF0E01020E396F02D00F0141
:100B2000309F77920CD00E01395105E162DF0E0142
:100B3000010E396F01D0609E779001D0779C020E34
:100B4000E15C02E2E16AE552E16EE552E7CFD9FFEE
:100B500012000F01236B246B050E000A06E00E0144
:100B6000D89000370137E804FBE101CE21FF00CE29
:100B700022FF04CE25FF0E01055103E00F01258D54
:100B800012D00F01259D07CE26FF08CE27FF09CEE4
:100B900028FF0ACE29FF0BCE2AFF0CCE2BFF0DCE4D
:100BA0002CFF0ECE2DFF0B0E206F12000F01136BCA
:100BB000146B050E000A06E00E01D89000370137CD
:100BC000E804FBE101CE11FF00CE12FF04CE15FFB9
:100BD0000E01055103E00F01158D12D00F01159D77
:100BE00007CE16FF08CE17FF09CE18FF0ACE19FF51
:100BF0000BCE1AFF0CCE1BFF0DCE1CFF0ECE1DFF21
:100C00000A0E106F12000F01036B046B050E000A31
:100C100006E00E01D89000370137E804FBE101CE71
:100C200001FF00CE02FF04CE05FF0E01055103E0D7
:100C30000F01058D12D00F01059D07CE06FF08CECE
:100C400007FF09CE08FF0ACE09FF0BCE0AFF0CCE24
:100C50000BFF0DCE0CFF0ECE0DFF090E006F120024
:100C60000F0120B702D0A9EF05F010B702D0D6EFE0
:080C700005F000A7C8DF120027
:080C7800F29E0F01170E5D6FE3
:100C80005C6B2F0E926E896A936A8A6AF00E946E7C
:100C90008B6A0C0E956E8C6A966A8D6A0B0E576F76
:100CA000D80E586FF70E596F1200C26ACF0EC114DA
:100CB0000009C16EC196F80EC1140009C16E950EEF
:100CC000C06EC46AC36AC2809E9C9D8C9F9C830E2A
:100CD000C2140009C26EC2821200D08EF28EF28C53
:100CE0001200F29CF29E12009588996ACA6ACA8420
:100CF000CB680C0EBB6E110E9C6EBC6A95981200F0
:100D0000BC50BD5CFDE11200BB6A93881200D9CFD4
:100D1000E6FFE1CFD9FFFD0EDB50010B02E0BB88FF
:100D200001D0BB98FD0EDB50020B02E0BB8A01D064
:100D3000BB9AD950FD0FE96EFF0EDA20EA6E020E63
:100D40000F0B06E0EC52D890ED32EF32E806FAE1F4
:100D5000FD0EDB50BC6EE552E7CFD9FF1200948C3C
:100D6000996ACA6ACA84CB680F010C0E4D6F4E6B2C
:100D7000949C1200D9CFE6FFE1CFD9FFFD0EDB50E6
:100D8000010B03E00F014D8902D00F014D99FD0EBB
:100D9000DB50020B02E04D8B01D04D9BD950FD0F73
:100DA000E96EFF0EDA20EA6E020E0F0B06E0EC523F
:100DB000D890ED32EF32E806FAE1FD0EDBCF4EFFC0
:100DC000E552E7CFD9FF1200948E996ACA6ACA84A5
:100DD000CB680F010C0E4A6F4B6B949E1200D9CF5B
:100DE000E6FFE1CFD9FFFD0EDB50010B03E00F0161
:100DF0004A8902D00F014A99FD0EDB50020B02E036
:100E00004A8B01D04A9BD950FD0FE96EFF0EDA20C4
:100E1000EA6E020E0F0B06E0EC52D890ED32EF3284
:100E2000E806FAE1FD0EDBCF4BFFE552E7CFD9FF35
:100E300012009496949A94888B868B9A82981200CA
:100E4000D9CFE6FFE1CFD9FF020EE126DF6A00002D
:100E50000000010EDB6A080EF36E010EDBCFF4FF1B
:100E6000F350F45C23E28B9600000000FE0EDBAE34
:100E700002D08B8A01D08B9AFE0EDBCFF3FFF39E5C
:100E8000F346FE0EF3CFDBFF82B8DF2A070EF36EC8
:100E9000010EDBCFF4FFF350F45C02E2DF9EDF468D
:100EA0008B8600000000010EDB2AD5D7DF5000D072
:100EB0000B6E020EE15C02E2E16AE552E16E0B505C
:100EC000E552E7CFD9FF1200030ED56EFB0ED76EA9
:100ED000A70ED66EF294F194F28AD58E1200CD6AE6
:100EE000CD963F0ECD140009CD6ECF0ECD14200946
:100EF000CD6ECD82AE0ECF6E990ECE6E9E909F902F
:100F00009D90CD9012009E90AE0ECF6E990ECE6E3B
:100F1000CD8012009E90CD9012009380F18CF292C1
:100F2000F28812009382F18AF090F08CF086120021
:100F30009384F188F092F08EF08812009386F18607
:100F4000F094F182F08A1200D9CFE6FFE1CFD9FF09
:100F5000FE0EDBCF0CF00CC00BF0030E0C14756E04
:100F6000FF0EE76EFD0EDBCF0BF0E7500B160B50BC
:100F7000746EFC0EDB50736E7F9E7F9C7F84F29EAE
:100F8000550E7E6EAA0E7E6E7F827FB2FED77F9454
:100F9000F28EE552E7CFD9FF1200D9CFE6FFE1CFBD
:100FA000D9FFFC0EDBCFE6FFFD0EDBCFE6FFFE0E2A
:100FB000DBCFE6FFC9DFE552E552E552FD0EDBCFA0
:100FC000E6FFFE0EDBCFE6FF0ED8E552E5520B6ED4
:100FD000FC0EDB500B5C02E1010E01D0000EE5526D
:100FE000E7CFD9FF1200D9CFE6FFE1CFD9FFFD0E41
:100FF000DBCF0BF0FE0EDBCF0CF00CC00BF00C6A5D
:10100000030E0B14756EFF0EE76EFD0EDBCF0BF0BB
:10101000FE0EDBCF0CF0E7500B160C6A0B50746E13
:101020007F9C7F9E7F8000000000735000D0E552BF
:10103000E7CFD9FF1200746A756A7F9C7F9EF29E8B
:101040007F847F80550E7E6EAA0E7E6E7F827FB279
:10105000FED7742A7450F5E1752A7550F2E17F9439
:04106000F28E1200FA
:0C106400D9CFE6FFE1CFD9FF040EE12652
:10107000DF6A010EDB6A020EDB6A030EDB6A180E02
:10108000F36E030EDBCFF4FFF350F45C6FE2020E5D
:10109000DB50030F080B0AE0030E0B6E020EDBCFD2
:1010A000E7FF0B50E726020EE7CFDBFF020EDB5017
:1010B000300F800B0AE0300E0B6E020EDBCFE7FF25
:1010C0000B50E726020EE7CFDBFF010EDB50030FCC
:1010D000080B0AE0030E0B6E010EDBCFE7FF0B508F
:1010E000E726010EE7CFDBFF010EDB50300F800B50
:1010F0000AE0300E0B6E010EDBCFE7FF0B50E72648
:10110000010EE7CFDBFF030EDF24080B02E0030E26
:10111000DF26300EDF24800B02E0300EDF26D9CF31
:10112000E9FFDACFEAFFD890EF36010EEB36020E78
:10113000EB36FC0EFD0EFE0EDBCF0DF00B6A0C6ADB
:10114000800E0D160B500C100D1001E0DF2AD95047
:10115000FC0FE96EFF0EDA20EA6ED890EF36010E32
:10116000EB36020EEB36030EDB2A89D7DFCF0BF00E
:10117000010EDBCF0CF0020EDBCF0DF00BC005F043
:101180000CC006F00DC007F0040EE15C02E2E16A5B
:10119000E552E16EE552E7CFD9FF1200D9CFE6FF65
:1011A000E1CFD9FFE652FE0EDB500F0BDF6E300EA3
:1011B000DF24E552E552E7CFD9FF1200D9CFE6FF91
:1011C000E1CFD9FF0A0EF36EFE0EDBCFF4FFF35032
:1011D000F45C04E2FE0EDB50300F0DD0240EF36EF3
:1011E000FE0EDBCFF4FFF350F45C04E2FE0EDB50A6
:1011F000370F01D0200EE552E7CFD9FF1200D9CF2B
:10120000E6FFE1CFD9FFFE0EDB500F0B0B6EFE0E9B
:10121000DB380F0B0A0DF3500B24E552E7CFD9FF53
:101220001200D9CFE6FFE1CFD9FF0E013B933B91EE
:10123000FE0EDB500B6E0C6AFF0ED8800B56000EB4
:101240000C560BC03AFE8A0E3C6F120E3D6FE552F3
:10125000E7CFD9FF12000E013BA30BD03A2B3A5136
:1012600008E13B8105D03DCEFAFF0E013C51F96EFD
:10127000FADF12000E013B913B8312000E013B93FB
:1012800012000E013BA1FDD712000E01D70E3A6FDE
:0212900012004A
:0E1292000001606B780E616F626B8250100B72
:1012A00002E0628101D062916251010B02E062832F
:1012B00001D06293636B1A0E646F6E6B070E6F6FD3
:1012C000656B8250200B02E0658101D0659165510C
:1012D000010B02E0658301D06593666B1A0E676FA0
:1012E000706B070E716F686B8350040B02E06881AE
:1012F00001D068916851010B02E0688301D06893C6
:10130000696B1A0E6A6F726B070E736F6B6B83508B
:10131000080B02E06B8101D06B916B51010B02E075
:101320006B8301D06B936C6B1A0E6D6F746B070E31
:10133000756F1200D9CFE6FFE6520001605101E05F
:0C1340006007E552E552E7CFD9FF12002C
:04134C00060EF66E25
:10135000000EF76E000EF86E00010900F550896F5F
:101360000900F5508A6F03E1896701D03DD009007B
:10137000F550846F0900F550856F0900F550866FB0
:1013800009000900F550E96E0900F550EA6E090000
:1013900009000900F550876F0900F550886F0900B2
:1013A0000900F6CF8BF0F7CF8CF0F8CF8DF084C02A
:1013B000F6FF85C0F7FF86C0F8FF0001875302E102
:1013C000885307E00900F550EE6E8707F8E28807BA
:1013D000F9D78BC0F6FF8CC0F7FF8DC0F8FF000176
:0A13E0008907000E8A5BBFD71200D8
:0613EA00410EF36E00EE5F
:1013F00000F00E0E01D81200EA6002D0EE6AFCD7AF
:0A140000F350E9601200EE6AFCD719
:06140A001DEE00F02DEEC6
:1014100000F0F86A0A9CA6EC09F007EC00F07DECFD
:0614200003F0FBD71200EF
:020000040030CA
:0100000015EA
:0100010002FC
:0100020046B7
:010003004CB0
:0100050008F2
:010006008178
:00000001FF
